:040000003FEF00F0DE
:10000800FACF29F0FBCF2AF0E9CF2BF0EACF2CF07A
:10001800E1CF2DF0E2CF2EF0D9CF2FF0DACF30F0AC
:10002800F3CF31F0F4CF32F0F6CF33F0F7CF34F02E
:10003800F8CF35F0F5CF36F029EC08F036C0F5FFEB
:1000480035C0F8FF34C0F7FF33C0F6FF32C0F4FF05
:1000580031C0F3FF30C0DAFF2FC0D9FF2EC0E2FF56
:100068002DC0E1FF2CC0EAFF2BC0E9FF2AC0FBFF2F
:0A00780029C0FAFF1100AFEF0FF0EE
:1008000000C6084C088008090809024300020100DC
:10081000C032090400000102020100052400100199
:100820000424020205240600010524010001070535
:10083000810308000209040100020A000000070504
:1008400002024000000705820240000034034D0010
:100850006900630072006F00630068006900700047
:10086000200054006500630068006E006F006C009B
:100870006F0067007900200049006E0063002E00C1
:1008800034034300440043002000520053002D0075
:10089000320033003200200045006D0075006C000E
:1008A0006100740069006F006E0020004400650064
:1008B0006D006F001201000202000008D8040A0057
:1008C0000001010200010403090400000401040105
:1008D0003205D8A414D00401040130511F0B0009C3
:1008E000D8A40DD000010001DA8F040104013151B8
:1008F000030AD8A402D0010E01D0000E486E0401F4
:100900000401326712000401040130511F0B020A76
:10091000D8A412000401040134510F0B0009D8B40B
:1009200012000401040134510F0B1A6E030E1A5CFD
:10093000D8B012004D50200AD8A4120000010001C6
:10094000DA8F040134BF21D00401040134510F0BAC
:100950001A6E1A50020D0001780EF324D96E0001B0
:10096000000EF420DA6EDECF20F0DDCF21F004019E
:10097000040134510F0B1A6E1A50010D0001850E3F
:10098000F324D96E0001000E20D00401040134517B
:100990000F0B1A6E1A50020D0001720EF324D96E5D
:1009A0000001000EF420DA6EDECF20F0DDCF21F062
:1009B0000401040134510F0B1A6E1A50010D00018D
:1009C000820EF324D96E0001000EF420DA6EDF509F
:1009D0001F6E1FB002D0209401D02084040134BFC8
:1009E0000ED00401040134510F0B1A6E1A50020D7F
:1009F0000001780EF324D96E0001000E0DD0040121
:100A0000040134510F0B1A6E1A50020D0001720EC0
:100A1000F324D96E0001000EF420DA6E20C0DEFF50
:100A200021C0DDFF040104013151030AD8A435D0EF
:100A300020C0D9FF21C0DAFFDFAE22D0040134BFCD
:100A40000ED00401040134510F0B1A6E1A50010D1F
:100A50000001850EF324D96E0001000E0DD00401B3
:100A6000040134510F0B1A6E1A50010D0001820E51
:100A7000F324D96E0001000EF420DA6E0001DF824B
:100A800020C0D9FF21C0DAFF000EDB8420C0D9FFCF
:100A900021C0DAFF000EDB8E1200040E201A20C0E7
:100AA000D9FF21C0DAFFDFAE1BD020C0D9FF21C0A3
:100AB000DAFF7F0EDF1620C0D9FF21C0DAFF000E5B
:100AC000DB8C000E136E050E126E21C015F020C0D7
:100AD00014F0000E176E020E166E2BEC0FF006D0FF
:100AE00020C0D9FF21C0DAFF000EDB8C040E201AD3
:100AF0001FB206D020C0D9FF21C0DAFFDFAE37D049
:100B0000040134BF0ED00401040134510F0B1A6EDE
:100B10001A50010D0001850EF324D96E0001000E5C
:100B20000DD00401040134510F0B1A6E1A50010D3F
:100B30000001820EF324D96E0001000EF420DA6E5B
:100B40000001DF9220C0D9FF21C0DAFF3B0EDF1683
:100B5000000E136E050E126E21C015F020C014F0A9
:100B6000000E176E020E166E2BEC0FF006D020C092
:100B7000D9FF21C0DAFF3B0EDF1604010401345116
:100B80000F0B1A6E1A50010D6A0E1B6E0F0E1C6EA3
:100B9000F3501B26F4501C221BC01DF01CC01EF07D
:100BA0001DC0D9FF1EC0DAFFFE0EDF161200A3948F
:100BB000000E676E000E656E000E6A6E0F0E00016D
:100BC0000001F06F6B0E00010001EF6F000E0001DD
:100BD0000001F26F000E0001F16F000E0001000134
:100BE000F46F020E0001F36FFCEC0FF0160E626E54
:100BF0009F0E666E7B0E646E0001F76F000E0001A3
:100C00000001F86F0001F75119D000010001F851FF
:100C1000040D0401000EF324D96E0401040EF42027
:100C2000DA6E000EDE6E000EDE6E000EDE6E000E60
:100C3000DD6EDD52DD5200010001F82B0B0E0001CC
:100C40000001F865E2D7608C000E636E6098609CCE
:100C500010D06596000E00010001DA6F000E000151
:100C600000016D6F000E000100016F6F000E0001AA
:100C70006E6F65B6EED7010E4E6E010E4F6E000E12
:100C80004A6E000E4B6E000E496E0001F76F000EAB
:100C900000010001F86F0001F7513FD00001000191
:100CA000F851020D0001720EF324D96E0001000EFE
:100CB000F420DA6E000EDE6E000EDD6E0001000123
:100CC000F851020D0001780EF324D96E0001000ED8
:100CD000F420DA6E000EDE6E000EDD6E0001000103
:100CE000F851010D0001820EF324D96E0001000EAF
:100CF000F420DA6E000EDF6E00010001F851010DE4
:100D00000001850EF324D96E0001000EF420DA6E86
:100D1000000EDF6E00010001F82B020E0001000141
:100D2000F865BCD70401040E00010001736F0401D3
:100D3000080E00010001726F160E6A6E040E0401A7
:100D40000401036F300E0401026F080E0401040158
:100D5000016F040E04010401006F04010401008FFF
:100D6000000E5C6E000E4D6E1200A394000E676EB6
:100D7000000E656E000E6A6E0F0E026E6B0E016E37
:100D8000000E046E000E036E000E066E020E056E5F
:100D900082EC10F0160E626E9F0E666E7B0E646E15
:100DA000096E000E0A6E095015D00A50040D040198
:100DB000000EF324D96E0401040EF420DA6E000E46
:100DC000DE6E000EDE6E000EDE6E000EDD6EDD529B
:100DD000DD520A2A0B0E0A64E8D7608C000E636E9F
:100DE0006098609C10D06596000E00010001DA6FDB
:100DF000000E000100016D6F000E000100016F6F19
:100E0000000E00016E6F65B6EED7010E4E6E010E3C
:100E10004F6E000E4A6E000E4B6E000E496E096E4C
:100E2000000E0A6E095035D00A50020D0001720EF4
:100E3000F324D96E0001000EF420DA6E000EDE6E8F
:100E4000000EDD6E0A50020D0001780EF324D96EFB
:100E50000001000EF420DA6E000EDE6E000EDD6E74
:100E60000A50010D0001820EF324D96E0001000E1C
:100E7000F420DA6E000EDF6E0A50010D0001850EBF
:100E8000F324D96E0001000EF420DA6E000EDF6E3E
:100E90000A2A020E0A64C8D70401040E00010001E8
:100EA000736F0401080E00010001726F160E6A6E66
:100EB000040E04010401036F300E0401026F080EDA
:100EC00004010401016F040E04010401006F040118
:100ED0000401008F000E5C6E000E4D6E12000401C6
:100EE00004013051800AD8A41200C00E0001000194
:100EF000DA6FA2D0080E00010001D86FB40E000115
:100F00000001D76F000E00010001DC6F120E00011E
:100F1000DB6F12000401040132674DD004010401AB
:100F20003251020D070EF324F66E080EF420F76E10
:100F300009000001F5CFD7F00A000001F5CFD8F085
:100F4000020E00010001D725016E000E0001000114
:100F5000D821026E01C0F6FF02C0F7FFF86A070E43
:100F6000F76403D00800F55005D0F6CFE1FFF7CFC6
:100F7000E2FFE75000010001DB6F030E00010001FA
:100F8000D725016E000E00010001D821026E01C0BC
:100F9000F6FF02C0F7FFF86A070EF76403D00800F7
:100FA000F55005D0F6CFE1FFF7CFE2FFE7500001A3
:100FB0000001DC6F1200000E00010001DA6F120068
:100FC000030E04010401325DD8B02CD004010401E9
:100FD0003251020D010EF324F66E080EF420F76E66
:100FE00009000001F5CFD7F00A000001F5CFD8F0D5
:100FF0000001D7C0F6FF0001D8C0F7FFF86A070E5E
:10100000F76403D00800F55005D0F6CFE1FFF7CF25
:10101000E2FFE750016E015000010001DB6F0001AB
:10102000DC6B1200000E00010001DA6F1200000EEE
:1010300000010001DA6F1200040104013351010ABA
:10104000D8B458D7030AD8B465D7010AD8B4B8D7EA
:10105000EED74D04D8B460BA06D0000E656E648039
:101060006488020E4D6E65B464A403D065946BEC85
:1010700010F060A202D0A494120065B064A006D063
:10108000B5EC06F0A384040E4D6E659065B864A8B7
:1010900003D098EC10F0659865AC18D064AC0ED015
:1010A000000E136E730E126E000E156E000E146E8F
:1010B000000E176E010E166E2BEC0FF0659C505053
:1010C000D8A45006506602D087EC0DF065BA64AA29
:1010D00002D01CEC10F065B264A210D07F0E136E2B
:1010E000FF0E126E000E156E000E146E000E176EBF
:1010F000010E166E2BEC0FF0000E676E040E4D5CA9
:10110000D8B002D0A494120064A63DD0276E000E81
:10111000286E275035D065A636D061CF5DF05D30A2
:10112000E832E8320F0B586E65965DB409D058501E
:10113000010D0001850EF324D96E0001000E08D0C8
:101140005850010D0001820EF324D96E0001000EEB
:10115000F420DA6E0001DF70586603D04EEC0CF01C
:101160000ED0000E136E720E126E000E156E5D0E16
:10117000146E000E176E000E166E2BEC0FF0282A60
:10118000030E2864C8D7A494120020EE01F0415049
:10119000D9264250DA22DF50036E035000010001CD
:1011A0006E5D000E00016F59D8A06EC003F00350B1
:1011B000000100016E5F000E00016F5B016E000E0A
:1011C000026E015015D00250010D0401380EF324B7
:1011D000D96E0401040EF420DA6E6AC0E1FF6BC020
:1011E000E2FFDFCFE7FF000100016A4B6B2B022A11
:1011F0000350025CD8A0E7D7000100016F516E11C7
:10120000D8B432D020EE01F04350D9264450DA222F
:10121000080EDF6E20EE02F04350D9264450DA2249
:10122000380EDE6E040EDD6E41C0D9FF42C0DAFF1B
:10123000DFBC0DD043C0D9FF44C0DAFF480EDF6EDB
:1012400043C0D9FF44C0DAFF000EDB8E120043C05A
:10125000D9FF44C0DAFF080EDF6E43C0D9FF44C097
:10126000DAFF000EDB8E120020EE01F04350D9268B
:101270004450DA22080EDF6E20EE02F04350D926E9
:101280004450DA22300EDE6E040EDD6E43C0D9FF0C
:1012900044C0DAFF040EDF6E43C0D9FF44C0DAFF5A
:1012A000000EDB8E000100016D9F4C66120087EC82
:1012B0000DF01200040104013039E832030B00097B
:1012C000D8A4120060D000010001DA8F080E4D6E24
:1012D00012006FEC07F0120071EC0AF01200000E21
:1012E00000010001D86F5C0E00010001D76F000102
:1012F0000001DA81010E00010001DB6F0001000135
:10130000DA8F1200DDEC0BF0120066EC04F0120034
:10131000040104013451010D5A0E226E000E236E99
:10132000F3502226F450232222C0D7F023C0D8F055
:1013300000010001DA81010E00010001DB6F0001F4
:101340000001DA8F120000010001DA8F04010401AC
:101350003451010D5A0EF324D96E000EF420DA6ECA
:10136000040132C4DFFF1200000E136E020E126E73
:10137000000E156E000E146E000E176E000E166E27
:101380002BEC0FF01200040104013151000AD8B413
:10139000B9D7010AD8B4B9D7020AD8B4B6D7060A61
:1013A000D8B491D7030AD8B494D7010AD8B4DCD7FB
:1013B0000F0AD8B494D7010AD8B48ED7030AD8B488
:1013C000A7D7010AD8B4BFD7070A12000401040145
:1013D00030511F0B016E0104D8A412000401040156
:1013E0003039E832030B016E0104D8A41200040165
:1013F00004013451D8B462D0040104013405D8A4E6
:1014000012005CD00001000E00010001D86F000145
:10141000C80E00010001D76F000E00010001DC6F53
:10142000080E0001DB6F00010001DA8100010001FC
:10143000DA8F12000001000E00010001D86F0001D8
:10144000C80E00010001D76F00010001DA8F120001
:1014500036C46EF037C46FF00001000E00010001C9
:101460006B6F0001D00E000100016A6F000E0001D9
:101470000001716F000E00010001706F000100019A
:101480006D8F12000001000E00010001D86F0001F5
:10149000D00E00010001D76F000E00010001DC6FCB
:1014A000070E0001DB6FC10E00010001DA6F1200B0
:1014B00032C457F000010001DA8F12000401040168
:1014C0003151000AD8B49ED7010AD8B4B3D7210A43
:1014D000D8B4BED7010AD8B4D5D7030AD8A412000D
:1014E000E7D700010001DA8F0F0E026E6B0E016E5E
:1014F000000E046E000E036E000E066E020E056EE8
:1015000082EC10F00401040E026E0401000E016E64
:10151000000E046E000E036E000E066E300E056E99
:1015200082EC10F0608C1A6E000E1B6E1A5019D0EF
:101530001B50010D0001820EF324D96E0001000E34
:10154000F420DA6E000EDF6E1B50010D0001850ED7
:10155000F324D96E0001000EF420DA6E000EDF6E67
:101560001B2A020E1B64E4D7000E026E5A0E016E97
:10157000000E046E000E036E000E066E020E056E67
:1015800082EC10F0609C0401040E00010001736FF6
:101590000401080E00010001726F0401040E426E86
:1015A0000401000E416E42C044F041C043F032C419
:1015B0005CF05C6603D0100E4D6E1200000E136ED0
:1015C000010E126E000E156E5C0E146E000E176E7C
:1015D000010E166E2BEC0FF0200E4D6E120060986F
:1015E0000001DABF39D000016DAF0BD0020E566E8C
:1015F0004B6602D0E9EC0DF0000E4F6E000E4E6E01
:10160000120020EE01F04350D9264450DA22080E91
:10161000DF6E20EE02F04350D9264450DA22300E1D
:10162000DE6E040EDD6E43C0D9FF44C0DAFF0C0E3F
:10163000DF6E43C0D9FF44C0DAFF000EDB8E72C0FC
:10164000D9FF73C0DAFF040EDF6E72C0D9FF73C01A
:10165000DAFF000EDB8E1200040130AF0FD0010E56
:10166000566E4A6602D0E9EC0DF0000E4F6E000E89
:101670004E6E4C66120087EC0DF01200020E566E94
:1016800020EE01F04350D9264450DA22080EDF6ED6
:1016900020EE02F04350D9264450DA22300EDE6E9E
:1016A000040EDD6E43C0D9FF44C0DAFF040EDF6EC6
:1016B00043C0D9FF44C0DAFF000EDB8E000E4F6E30
:1016C000000E4E6E4C66120087EC0DF01200016E9B
:1016D000080E026E0150080E00010001DB5D000ED5
:1016E0000001DC59D8B00BD0DBC002F0596602D043
:1016F000010E04D05904D8A402D0020E596E025033
:1017000000010001DB5F000E0001DC5B000120EE48
:1017100001F000017251D92600017351DA2202C092
:10172000DFFF0401040E466E0401380E456E000111
:10173000DAA11FD03FD00001D7C0F6FF0001D8C00A
:10174000F7FFF86A45C0D9FF46C0DAFF070EF76415
:1017500003D00800F55005D0F6CFE1FFF7CFE2FF48
:10176000E750DF6E00010001D74BD82B454A462ACF
:1017700002060266E0D712000001D7C0F6FF0001A2
:10178000D8C0F7FFF86A45C0D9FF46C0DAFF070E98
:10179000F76403D00800F55005D0F6CFE1FFF7CF8E
:1017A000E2FFE750DF6E00010001D74BD82B454A1E
:1017B000462A02060266E0D71200000E0401040168
:1017C000386F000E04010401396F46D0000100019A
:1017D000DA8F4804D8A44DD004010401388349D0DD
:1017E00000010001DA8F45D000010001DA8F040109
:1017F00034BF0ED00401040134510F0B016E0150AF
:10180000020D0001780EF324D96E0001000E0DD0F8
:101810000401040134510F0B016E0150020D00014F
:10182000720EF324D96E0001000EF420DA6EDECFC2
:1018300002F0DDCF03F002C0D9FF03C0DAFFDFAE54
:1018400018D002C0D9FF03C0DAFFDFA412D0010E06
:1018500004010401386F0DD00401040130511F0B45
:10186000000AD8B4B3D7010AD8B4BAD7030AD8B497
:10187000BBD70001DAAF12000401040E0001000121
:10188000D86F0401380E00010001D76F000100017C
:10189000DA81020E00010001DB6F12002D0E506E86
:1018A0005DC024F0FD0E2416D8A45CD05DC024F0E9
:1018B000D89024323F0E24162450040D0401000E4B
:1018C000F324416E0401040EF420426E42C044F041
:1018D00041C043F0040E431A41C0D9FF42C0DAFFB1
:1018E000DF30E8320F0B0D0AD8A439D0246E000E79
:1018F000266E245024D020EE02F04150D9264250CA
:10190000DA22DECF24F0DDCF25F024C0D9FF25C0B8
:10191000DAFF2650010D0401300EF324E16E0401BC
:10192000040EF420E26EDFCFE7FF20EE02F041501C
:10193000D9264250DA22DE2A000EDD22262A070EA0
:101940002664D9D720EE02F04150D9264250DA223F
:10195000300EDE6E040EDD6E3EEC0EF0120059EC21
:101960000FF012005DC024F0FD0E24162450040A6E
:10197000D8A4120023EC0DF01200E8CF05F00150BE
:10198000D8B409D00550020D0001720EF324D96EAF
:101990000001000E08D00550020D0001780EF3245E
:1019A000D96E0001000EF420DA6EDECF06F0DDCF36
:1019B00007F007500610D8A405D0000E026E000EE6
:1019C000016E120020EE02F00650D9260750DA22EE
:1019D00002C0DEFF03C0DDFF20EE01F00650D92675
:1019E0000750DA2204C0DFFF06C0D9FF07C0DAFFC4
:1019F000400EDF1606C0D9FF07C0DAFF000EDB86F7
:101A000006C0D9FF07C0DAFF000EDB8E0150D8B444
:101A100009D00550020D0001720EF324D96E0001A9
:101A2000000E08D00550020D0001780EF324D96E87
:101A30000001000EF420DA6E040EDF1A07C002F077
:101A400006C001F0120072C0D9FF73C0DAFF000EA9
:101A5000DFBC010E036E040E00010001721B4D502D
:101A6000080AD8A40CD00401040132517F0B636E24
:101A70006350D8B402D0100E01D0040E4D6E56043F
:101A8000D8A43CD0000120EE02F000017251D9260A
:101A900000017351DA22380EDE6E040EDD6E67EC43
:101AA0000BF05950020AD8A40DD072C0D9FF73C0F0
:101AB000DAFF040EDF6E72C0D9FF73C0DAFF000ECA
:101AC000DB8E120003660DD072C0D9FF73C0DAFF3F
:101AD000480EDF6E72C0D9FF73C0DAFF000EDB8ED6
:101AE000120072C0D9FF73C0DAFF080EDF6E72C039
:101AF000D9FF73C0DAFF000EDB8E120000016DAF5C
:101B000003D0000100016D9F000E566E12004E665C
:101B10001200010E4E6E4F661200010E4F6E5650AF
:101B2000020AD8A418D0000120EE01F00001725181
:101B3000D92600017351DA22000EDF6E72C0D9FF80
:101B400073C0DAFF480EDF6E72C0D9FF73C0DAFFD0
:101B5000000EDB8E12005604D8A41200000E476E51
:101B600020EE01F04150D9264250DA22080EDF6EF5
:101B700020EE02F04150D9264250DA22300EDE6EBD
:101B8000040EDD6E41C0D9FF42C0DAFF040EDF6EE5
:101B900041C0D9FF42C0DAFF000EDB8E010E476E56
:101BA00020EE01F04350D9264450DA22080EDF6EB1
:101BB00020EE02F04350D9264450DA22300EDE6E79
:101BC000040EDD6E43C0D9FF44C0DAFF800EDF6E25
:101BD0001200000E4A6E000E4B6E5650020AD8A438
:101BE0001FD020EE01F04350D9264450DA22080ECF
:101BF000DF6E20EE02F04350D9264450DA22380E30
:101C0000DE6E040EDD6E43C0D9FF44C0DAFF480E1D
:101C1000DF6E43C0D9FF44C0DAFF000EDB8E120036
:101C200000010001DB5104010401365D00010001E7
:101C3000DC51040104013759D8B004D036C4DBF0BC
:101C400037C4DCF067EC0BF0000120EE02F000017D
:101C50007251D92600017351DA22380EDE6E040E5D
:101C6000DD6E72C0D9FF73C0DAFF480EDF6E72C03E
:101C7000D9FF73C0DAFF000EDB8E1200000E596E22
:101C8000000E4C6E000E4A6E000E4B6E000E476E3C
:101C9000000E566E72C0D9FF73C0DAFF7F0EDF16DA
:101CA000040E00010001721B72C0D9FF73C0DAFF7D
:101CB0007F0EDF16040E00010001721B43C0D9FF26
:101CC00044C0DAFF7F0EDF16000E00010001DA6F5C
:101CD000000E00010001DC6F000E0001DB6F000E42
:101CE000000100016D6F000E000100016F6F000E1A
:101CF00000016E6F5AEC09F0000E136E030E126EA7
:101D0000000E156E000E146E000E176E000E166E8D
:101D10002BEC0FF0EFEC0AF01200000E00010001B6
:101D2000D06F4B0E0001D16F000E0001D26F000E7C
:101D30000001D36F0F6E000E00010001D46F0F5031
:101D40000F6E000E00010001D56F0F500F6E080ED0
:101D500000010001D66F0F500F6E000E536E0F5032
:101D60000F6E1A0E096E0F50010E86EC0FF00F6EFB
:101D70001E0E096E0F50020E86EC0FF00F6E000E55
:101D8000016E0F500501050E036E0501400E026E37
:101D9000106E400E046E1050020EBDEC0CF001C02F
:101DA0003FF002C040F0000E3E6E000E3D6E0F6E22
:101DB000000E546E0F501200E8CF06F00401040E1E
:101DC000086E0401000E076ED8900134026E036A9B
:101DD00003360650046E056AD89004360536D8904E
:101DE000043605360250042603500522D8900436E6
:101DF0000536D890043605360450072605500822CB
:101E000007C0D9FF08C0DAFFDF9E016609D006507F
:101E1000020D0001780EF324D96E0001000E08D0E7
:101E20000650020D0001720EF324D96E0001000E5F
:101E3000F420DA6E07C0DEFF08C0DDFF07C0D9FF5F
:101E400008C0DAFFDF9C20EE04F00750D9260850C6
:101E5000DA22DF8C120006D0D6EC0FF01200E6EC8E
:101E600009F0120012C018F013C019F01950000A3E
:101E7000D8B404D07F0AD8A4120018D01850010A90
:101E8000D8B4EAD7030AD8B41200010AD8B4E7D705
:101E9000060AD8B41200770AD8B41200010AD8B4DE
:101EA0001200070AD8B41200010A12001850FF0AE3
:101EB00012005650020AD8A403D0C5EC08F0120054
:101EC000000E566E47661FD020EE01F04350D92613
:101ED0004450DA22080EDF6E20EE02F04350D9267D
:101EE0004450DA22300EDE6E040EDD6E43C0D9FFA0
:101EF00044C0DAFF0C0EDF6E43C0D9FF44C0DAFFE6
:101F0000000EDB8E1200000E476E1200E8CF0EF0BE
:101F100009A407D00A6E000E016E0A500E50DCECC8
:101F20000EF009A207D00A6E010E016E0A500E5083
:101F3000DCEC0EF00E50010D6A0E0A6E0F0E0B6EE9
:101F4000F3500A26F4500B220AC00CF00BC00DF01F
:101F50000CC0D9FF0DC0DAFF09C0DFFF120001EE8F
:101F600000F0400EEE6AE806FDE100EE60F07D0E46
:101F7000EE6AE806FDE100EE37F0270EEE6AE806AD
:101F8000FDE1760EF66E210EF76E000EF86E00EE95
:101F9000DDF010EE12F00900F5CFEEFFE550E15054
:101FA000FAE1000EF86E0001ACEF10F08DEC0EF0CF
:101FB000116E000E00010001D46F1150116E080E59
:101FC00000010001D66F1150116E000E00010001DA
:101FD000D56F1150800E00010001D06F250E000159
:101FE000D16F000E0001D26F000E0001D36F116E91
:101FF000000E516E1150120000010001F0C0F6F009
:1020000000010001EFC0F5F00BD0F5C0D9FFF6C01C
:10201000DAFF0001F1C0DFFF00010001F54BF62BF4
:1020200000010001F307D8A0F4070001F329D8B498
:10203000F429D8B41200E9D76AA01BD0800E41C0A1
:10204000D9FF42C0DAFFDF6213D0840E72C0D9FF1D
:1020500073C0DAFFDF620CD041C0D9FF42C0DAFFA3
:102060000C0EDF6E41C0D9FF42C0DAFF000EDB8EDE
:102070006A90659A1200E8CFEFF00BD0800E9B6E4D
:10208000700ED36E100ED26ED2AEFED7900EB56E1D
:10209000120000010001EF51000AD8B4EFD7010A85
:1020A000D8B41200030A12004D661200000E606ED2
:1020B000000E646E160E626E9F0E666E7B0E646E70
:1020C000D08EA584A384F28E01D0608660A6FDD751
:1020D000010E4D6E1200000E496E000E136E740E4E
:1020E000126E000E156E000E146E000E176E000EAE
:1020F000166E2BEC0FF06092649401D0659465A489
:102100001200FCD702C008F001C007F008D007C0D9
:10211000D9FF08C0DAFF03C0DFFF074A082A050617
:10212000D8A006060528D8B40628D8B41200EFD7E0
:10213000648465986082010E496E000E136E750E00
:10214000126E000E156E000E146E000E176E000E4D
:10215000166E2BEC0FF01200000E3BEC10F0D7ECDB
:1021600005F054EC10F0200E4D5CD8B060B2FBD7F7
:10217000C4EC10F0F8D7427574746F6E20707265FD
:0A218000737365642E0D0A0012004F
:020000040020DA
:08000000FFFFFFFFFFFFFFFF00
:020000040030CA
:0E00000021081F3EFF9181FF0FC00FE00F404F
:00000001FF
