:040000003FEF00F0DE
:10000800FACF29F0FBCF2AF0E9CF2BF0EACF2CF07A
:10001800E1CF2DF0E2CF2EF0D9CF2FF0DACF30F0AC
:10002800F3CF31F0F4CF32F0F6CF33F0F7CF34F02E
:10003800F8CF35F0F5CF36F097EC0AF036C0F5FF7B
:1000480035C0F8FF34C0F7FF33C0F6FF32C0F4FF05
:1000580031C0F3FF30C0DAFF2FC0D9FF2EC0E2FF56
:100068002DC0E1FF2CC0EAFF2BC0E9FF2AC0FBFF2F
:0A00780029C0FAFF11006EEF13F02B
:1008000000C6084C088008090809024300020100DC
:10081000C032090400000102020100052400100199
:100820000424020205240600010524010001070535
:10083000810308000209040100020A000000070504
:1008400002024000000705820240000034034D0010
:100850006900630072006F00630068006900700047
:10086000200054006500630068006E006F006C009B
:100870006F0067007900200049006E0063002E00C1
:1008800034034300440043002000520053002D0075
:10089000320033003200200045006D0075006C000E
:1008A0006100740069006F006E0020004400650064
:1008B0006D006F001201000202000008D8040A0057
:1008C0000001010200010403090400000401040105
:1008D0003205D8A414D00401040130511F0B0009C3
:1008E000D8A40DD0000100019F8F040104013151F3
:1008F000030AD8A402D0010E01D0000E446E0401F8
:100900000401326712000401040130511F0B020A76
:10091000D8A412000401040134510F0B0009D8B40B
:1009200012000401040134510F0B1A6E030E1A5CFD
:10093000D8B01200000100018E51200AD8A4120084
:10094000000100019F8F040134BF21D00401040184
:1009500034510F0B1A6E1A50020D0001780EF32459
:10096000D96E0001000EF420DA6EDECF20F0DDCF6C
:1009700021F00401040134510F0B1A6E1A50010DBD
:100980000001810EF324D96E0001000E20D0040175
:10099000040134510F0B1A6E1A50020D0001720E31
:1009A000F324D96E0001000EF420DA6EDECF20F0C1
:1009B000DDCF21F00401040134510F0B1A6E1A50DF
:1009C000010D00017E0EF324D96E0001000EF4200B
:1009D000DA6EDF501F6E1FB002D0209401D0208449
:1009E000040134BF0ED00401040134510F0B1A6E00
:1009F0001A50020D0001780EF324D96E0001000E8A
:100A00000DD00401040134510F0B1A6E1A50020D5F
:100A10000001720EF324D96E0001000EF420DA6E8C
:100A200020C0DEFF21C0DDFF040104013151030AB3
:100A3000D8A435D020C0D9FF21C0DAFFDFAE22D044
:100A4000040134BF0ED00401040134510F0B1A6E9F
:100A50001A50010D0001810EF324D96E0001000E21
:100A60000DD00401040134510F0B1A6E1A50010D00
:100A700000017E0EF324D96E0001000EF420DA6E20
:100A80000001DF8220C0D9FF21C0DAFF000EDB8425
:100A900020C0D9FF21C0DAFF000EDB8E1200040E49
:100AA000201A20C0D9FF21C0DAFFDFAE1BD020C042
:100AB000D9FF21C0DAFF7F0EDF1620C0D9FF21C089
:100AC000DAFF000EDB8C000E136E050E126E21C0D5
:100AD00015F020C014F0000E176E020E166EB5EC65
:100AE00012F006D020C0D9FF21C0DAFF000EDB8C47
:100AF000040E201A1FB206D020C0D9FF21C0DAFF91
:100B0000DFAE37D0040134BF0ED0040104013451EC
:100B10000F0B1A6E1A50010D0001810EF324D96ECD
:100B20000001000E0DD00401040134510F0B1A6EA8
:100B30001A50010D00017E0EF324D96E0001000E43
:100B4000F420DA6E0001DF9220C0D9FF21C0DAFF65
:100B50003B0EDF16000E136E050E126E21C015F04F
:100B600020C014F0000E176E020E166EB5EC12F0D7
:100B700006D020C0D9FF21C0DAFF3B0EDF160401EA
:100B8000040134510F0B1A6E1A50010D6A0E1B6EC0
:100B90000F0E1C6EF3501B26F4501C221BC01DF0C0
:100BA0001CC01EF01DC0D9FF1EC0DAFFFE0EDF16EE
:100BB0001200A394000100018B518A11D8B414D003
:100BC0008AC0D9FF8BC0DAFFDFAE04D00001BB6B57
:100BD000BB2B02D00001BB6B0001BB510001000127
:100BE000BD6F0001BE6B07D0000E00010001BE6F9B
:100BF000000E0001BD6F00010001BE51BD11D8B44F
:100C000002D0A3841200000100019251030AD8A46B
:100C100008D00001BB6F000E00010001926F0001BF
:100C2000BB5100010001926702D0A38412000001B1
:100C300000019251020AD8A42AD00001BB6F010E14
:100C400000010001B46F0001BB51000E0001000162
:100C5000B66F000E00010001B56F0001BC6F000E01
:100C600000010001B76F0001BC51020E5EEC0CF0F8
:100C70000001B4C08AF00001B5C08BF00001BB6F69
:100C8000030E00010001926F0001BB5196D00001DC
:100C900000019205D8A491D0400E00010001936597
:100CA00009D00001BB6F400E00010001C06F0001C0
:100CB000BB5102D093C0C0F000010001C051000838
:100CC00000010001932500010001936F0501050E4D
:100CD00000010001856F0501000E00010001846F15
:100CE000C0C0BFF000010001906730D015D087C0B0
:100CF000D9FF88C0DAFF84C0E1FF85C0E2FFDFCF03
:100D0000E7FF00010001844B852B00010001874BA8
:100D1000882B00010001BF0700010001BF67E7D772
:100D200019D087C0D9FF88C0DAFF84C0E1FF85C031
:100D3000E2FFDFCFE7FF00010001844B852B0001BC
:100D40000001874B882B00010001BF070001000153
:100D5000BF67E7D700010001936712D000010001CF
:100D6000C051400AD8A404D00001BB6F020E03D0CA
:100D70000001BB6F030E00010001926F0001BB5127
:100D80000001BB6F010E00010001B46F0001BB51F7
:100D90000501050E00010001B66F0501000E0001FE
:100DA0000001B56FC0C0B7F0020E5EEC0CF00001A0
:100DB000B4C08AF00001B5C08BF0A3841200A394E4
:100DC000000E676E000E656E000E6A6E0F0E00015B
:100DD0000001B56F6B0E00010001B46F000E000141
:100DE0000001B76F000E0001B66F000E0001000198
:100DF000B96F020E0001B86FB6EC13F0160E626EFA
:100E00009F0E666E7B0E646E0001BC6F000E0001CB
:100E10000001BD6F0001BC5119D000010001BD519E
:100E2000040D0401000EF324D96E0401040EF42015
:100E3000DA6E000EDE6E000EDE6E000EDE6E000E4E
:100E4000DD6EDD52DD5200010001BD2B0B0E0001F5
:100E50000001BD65E2D7608C000E636E6098609CF7
:100E600010D06596000E000100019F6F000E00017A
:100E700000016D6F000E000100016F6F000E000198
:100E80006E6F65B6EED7010E496E010E4A6E000E0A
:100E9000466E000E476E000E456E0001BC6F000EE0
:100EA00000010001BD6F0001BC513FD000010001F5
:100EB000BD51020D0001720EF324D96E0001000E27
:100EC000F420DA6E000EDE6E000EDD6E0001000111
:100ED000BD51020D0001780EF324D96E0001000E01
:100EE000F420DA6E000EDE6E000EDD6E00010001F1
:100EF000BD51010D00017E0EF324D96E0001000EDC
:100F0000F420DA6E000EDF6E00010001BD51010D0C
:100F10000001810EF324D96E0001000EF420DA6E78
:100F2000000EDF6E00010001BD2B020E000100016A
:100F3000BD65BCD70401040E00010001736F0401FC
:100F4000080E00010001726F160E6A6E040E040195
:100F50000401036F300E0401026F080E0401040146
:100F6000016F040E04010401006F04010401008FED
:100F7000000E596E000E000100018E6F1200020E6D
:100F8000F5EC13F00001C26F0001C205D8A418D01F
:100F9000000100018F671CD000010001926718D08A
:100FA0000001000E00010001B56F0001A20E00015A
:100FB0000001B46F2BEC12F00001C26F010E03D0E0
:100FC0000001C26F000E000100018F6F0001C251CD
:100FD0000001000192678CD00101010E00010001A7
:100FE000BC6F0101000E00010001BB6F0001C26F68
:100FF000400E00010001BD6F0001C251F1EC09F08B
:1010000000010001C36F0001C26F000E000100016A
:10101000C46F0001C25151D000010001C451010D43
:101020000101000EF324D96E0101010EF420DA6EE5
:1010300000010001C451010D0101400EF324E16ED5
:101040000101010EF420E26EDFCFE7FF33D0000193
:101050000001C451010D0101400EF324D96E0101BC
:10106000010EF420DA6E00010001C451010D0101EE
:10107000000EF324E16E0101010EF420E26EE75050
:101080000001C26F0001C229DF6E14D0000100010F
:10109000C451010D0101000EF324D96E0101010EAE
:1010A000F420DA6EDF500A0AD8B4B6D7070AD8B4EB
:1010B000B3D7CDD700010001C42B00010001C351FB
:1010C00000010001C45DD8A0E1D700010001C351B7
:1010D000D8B40ED00101010E00010001B56F01016D
:1010E000400E00010001B46FC3C0B6F095EC13F0E0
:1010F000D9EC05F01200A394000E676E000E656E29
:10110000000E6A6E0F0E026E6B0E016E000E046E04
:10111000000E036E000E066E020E056ED4EC14F087
:10112000160E626E9F0E666E7B0E646E096E000E6A
:101130000A6E095015D00A50040D0401000EF32464
:10114000D96E0401040EF420DA6E000EDE6E000E7D
:10115000DE6E000EDE6E000EDD6EDD52DD520A2AFE
:101160000B0E0A64E8D7608C000E636E6098609C7A
:1011700010D06596000E000100019F6F000E000167
:1011800000016D6F000E000100016F6F000E000185
:101190006E6F65B6EED7010E496E010E4A6E000EF7
:1011A000466E000E476E000E456E096E000E0A6E0A
:1011B000095035D00A50020D0001720EF324D96E89
:1011C0000001000EF420DA6E000EDE6E000EDD6E01
:1011D0000A50020D0001780EF324D96E0001000EB2
:1011E000F420DA6E000EDE6E000EDD6E0A50010D88
:1011F00000017E0EF324D96E0001000EF420DA6E99
:10120000000EDF6E0A50010D0001810EF324D96E2D
:101210000001000EF420DA6E000EDF6E0A2A020EC4
:101220000A64C8D70401040E00010001736F0401B1
:10123000080E00010001726F160E6A6E040E0401A2
:101240000401036F300E0401026F080E0401040153
:10125000016F040E04010401006F04010401008FFA
:10126000000E596E000E000100018E6F1200040185
:1012700004013051800AD8A41200C00E0001000100
:101280009F6FA2D0080E000100019D6FB40E0001F7
:1012900000019C6F000E00010001A16F120E000101
:1012A000A06F12000401040132674DD00401040153
:1012B0003251020D070EF324F66E080EF420F76E7D
:1012C00009000001F5CF9CF00A000001F5CF9DF068
:1012D000020E000100019C25016E000E00010001BC
:1012E0009D21026E01C0F6FF02C0F7FFF86A070EEB
:1012F000F76403D00800F55005D0F6CFE9FFF7CF2B
:10130000EAFFEF5000010001A06F030E0001000191
:101310009C25016E000E000100019D21026E01C09E
:10132000F6FF02C0F7FFF86A070EF76403D0080063
:10133000F55005D0F6CFE9FFF7CFEAFFEF500001F7
:101340000001A16F1200000E000100019F6F12004A
:10135000030E04010401325DD8B02CD00401040155
:101360003251020D010EF324F66E080EF420F76ED2
:1013700009000001F5CF9CF00A000001F5CF9DF0B7
:1013800000019CC0F6FF00019DC0F7FFF86A070E40
:10139000F76403D00800F55005D0F6CFE9FFF7CF8A
:1013A000EAFFEF50016E015000010001A06F000143
:1013B000A16B1200000E000100019F6F1200000ED1
:1013C000000100019F6F1200040104013351010A62
:1013D000D8B458D7030AD8B465D7010AD8B4B8D757
:1013E000EED70001BE6F000E00010001916F0001F9
:1013F000BE51000100018D518C11D8B414D08CC0A5
:10140000D9FF8DC0DAFFDFAE04D00001BE6BBE2B6A
:1014100002D00001BE6B0001BE5100010001C06F8F
:101420000001C16B07D0000E00010001C16F000E6A
:101430000001C06F00010001C151C011D8A473D0D8
:10144000000120EE01F000018C51D92600018D51E0
:10145000DA22DF500001BE6F00010001BD51000122
:10146000BE5DD8B00DD0000120EE01F000018C511E
:10147000D92600018D51DA22DF5000010001BD6F35
:101480000001BE6F000E00010001916F0001BE510E
:101490001FD0000100019151010D0501400EF32400
:1014A000D96E0501050EF420DA6E0001000191519C
:1014B000010DF35000010001BB25E16EF450000165
:1014C0000001BC21E26EDFCFE7FF00010001912B9C
:1014D00000010001BD5100010001915DD8A0D9D7E4
:1014E0000001BE6F000E00010001B46F0001BE518B
:1014F0000501050E00010001B66F0501400E000157
:101500000001B56F0001BF6F400E00010001B76F11
:101510000001BF51020E5EEC0CF00001B4C08CF073
:101520000001B5C08DF000010001915112000001D1
:1015300000018E05D8B460BA08D0000E656E6480D4
:101540006488020E000100018E6F65B464A403D0AC
:101550006594BDEC14F060A202D0A494120065B0B2
:1015600064A008D07BEC08F0A384040E0001000105
:101570008E6F659065B864A803D0EAEC14F06598A6
:1015800065AC18D064AC0ED0000E136E730E126EE4
:10159000000E156E000E146E000E176E010E166E04
:1015A000B5EC12F0659C4B50D8A44B064B6602D0AC
:1015B0008AEC10F065BA64AA02D014EC14F065B29B
:1015C00064A210D07F0E136EFF0E126E000E156E09
:1015D000000E146E000E176E010E166EB5EC12F0B2
:1015E000000E676E040E000100018E5DD8B002D0BF
:1015F000A494120064A63DD0276E000E286E2750DA
:1016000035D065A636D061CF5AF05A30E832E8328C
:101610000F0B4E6E65965AB409D04E50010D000165
:10162000810EF324D96E0001000E08D04E50010D3A
:1016300000017E0EF324D96E0001000EF420DA6E54
:101640000001DF704E6603D04DEC0FF00ED0000E9F
:10165000136E720E126E000E156E5A0E146E000E80
:10166000176E000E166EB5EC12F0282A030E2864D1
:10167000C8D7A494120020EE01F03D50D9263E5068
:10168000DA22DF50036E0350000100016E5D000E90
:1016900000016F59D8A06EC003F003500001000193
:1016A0006E5F000E00016F5B016E000E026E015056
:1016B00015D00250010D0401380EF324D96E040137
:1016C000040EF420DA6E6AC0E1FF6BC0E2FFDFCFE8
:1016D000E7FF000100016A4B6B2B022A0350025CFA
:1016E000D8A0E7D7000100016F516E11D8B432D0F5
:1016F00020EE01F03F50D9264050DA22080EDF6E6E
:1017000020EE02F03F50D9264050DA22380EDE6E2D
:10171000040EDD6E3DC0D9FF3EC0DAFFDFBC0DD048
:101720003FC0D9FF40C0DAFF480EDF6E3FC0D9FF8F
:1017300040C0DAFF000EDB8E12003FC0D9FF40C070
:10174000DAFF080EDF6E3FC0D9FF40C0DAFF000E9F
:10175000DB8E120020EE01F03F50D9264050DA22F5
:10176000080EDF6E20EE02F03F50D9264050DA22FC
:10177000300EDE6E040EDD6E3FC0D9FF40C0DAFFD2
:10178000040EDF6E3FC0D9FF40C0DAFF000EDB8ED3
:10179000000100016D9F486612008AEC10F01200F3
:1017A000040104013039E832030B0009D8A4120007
:1017B00062D0000100019F8F080E000100018E6FB2
:1017C000120037EC09F012006CEC0DF01200000E64
:1017D000000100019D6F590E000100019C6F000186
:1017E00000019F81010E00010001A06F00010001B6
:1017F0009F8F1200DCEC0EF0120066EC04F0120079
:10180000040104013451010D570E226E000E236EA7
:10181000F3502226F450232222C09CF023C09DF0D6
:10182000000100019F81010E00010001A06F000175
:1018300000019F8F1200000100019F8F040104012D
:101840003451010D570EF324D96E000EF420DA6ED8
:10185000040132C4DFFF1200000E136E020E126E7E
:10186000000E156E000E146E000E176E000E166E32
:10187000B5EC12F01200040104013151000AD8B491
:10188000B9D7010AD8B4B9D7020AD8B4B6D7060A6C
:10189000D8B48FD7030AD8B494D7010AD8B4DCD708
:1018A0000F0AD8B494D7010AD8B48ED7030AD8B493
:1018B000A7D7010AD8B4BFD7070A1200E8CFB8F0FB
:1018C00000010001B451D8B40BD000010001B8519F
:1018D000020D0001720EF324D96E0001000E0AD031
:1018E00000010001B851020D0001780EF324D96EF9
:1018F0000001000EF420DA6E0001DECFB9F0000125
:10190000DDCFBAF000010001BA51B911D8A409D055
:10191000000E00010001B56F000E00010001B46F60
:101920001200000120EE02F00001B951D926000199
:10193000BA51DA220001B5C0DEFF0001B6C0DDFFFA
:10194000000120EE01F00001B951D9260001BA5181
:10195000DA220001B7C0DFFFB9C0D9FFBAC0DAFF91
:10196000400EDF16B9C0D9FFBAC0DAFF000EDB8621
:10197000B9C0D9FFBAC0DAFF000EDB8E000100014A
:10198000B451D8B40BD000010001B851020D0001D0
:10199000720EF324D96E0001000E0AD0000100017E
:1019A000B851020D0001780EF324D96E0001000E2B
:1019B000F420DA6E040EDF1A00010001BAC0B5F09F
:1019C00000010001B9C0B4F012000401040130515B
:1019D0001F0B016E0104D8A4120004010401303968
:1019E000E832030B016E0104D8A4120004010401C3
:1019F0003451D8B45ED0040104013405D8A41200D7
:101A000058D00001000E000100019D6F0001940EEE
:101A1000000100019C6F000E00010001A16F080E83
:101A20000001A06F000100019F81000100019F8F54
:101A300012000001000E000100019D6F0001940ED4
:101A4000000100019C6F000100019F8F120036C44D
:101A50006EF037C46FF0000E000100016B6F500E86
:101A6000000100016A6F000E00010001716F000E9D
:101A700000010001706F000100016D8F1200000E67
:101A8000000100019D6F500E000100019C6F000ECF
:101A900000010001A16F070E0001A06FC10E00013F
:101AA00000019F6F120032C44DF0000100019F8FB2
:101AB0001200040104013151000AD8B4A2D7010A6E
:101AC000D8B4B7D7210AD8B4C2D7010AD8B4D7D767
:101AD000030AD8A41200E7D7000100019F8F0F0E60
:101AE000026E6B0E016E000E046E000E036E000E91
:101AF000066E020E056ED4EC14F00401040E026EA4
:101B00000401000E016E000E046E000E036E000E46
:101B1000066E300E056ED4EC14F0608C1A6E000E5A
:101B20001B6E1A5019D01B50010D00017E0EF324BC
:101B3000D96E0001000EF420DA6E000EDF6E1B502D
:101B4000010D0001810EF324D96E0001000EF42076
:101B5000DA6E000EDF6E1B2A020E1B64E4D7000E45
:101B6000026E570E016E000E046E000E036E000E24
:101B7000066E020E056ED4EC14F0609C0401040E97
:101B800000010001736F0401080E00010001726F73
:101B90000401040E3E6E0401000E3D6E3EC040F096
:101BA0003DC03FF032C459F0596605D0100E000117
:101BB00000018E6F1200000E136E010E126E000EE9
:101BC000156E590E146E000E176E010E166EB5ECE2
:101BD00012F0200E000100018E6F120060980001CB
:101BE0009FBF39D000016DAF0BD0020E4C6E47661F
:101BF00002D0ECEC10F0000E4A6E000E496E12009E
:101C000020EE01F03F50D9264050DA22080EDF6E58
:101C100020EE02F03F50D9264050DA22300EDE6E20
:101C2000040EDD6E3FC0D9FF40C0DAFF0C0EDF6E40
:101C30003FC0D9FF40C0DAFF000EDB8E72C0D9FF73
:101C400073C0DAFF040EDF6E72C0D9FF73C0DAFF13
:101C5000000EDB8E1200040130AF0FD0010E4C6E6F
:101C6000466602D0ECEC10F0000E4A6E000E496E93
:101C7000486612008AEC10F01200020E4C6E20EE44
:101C800001F03F50D9264050DA22080EDF6E20EED8
:101C900002F03F50D9264050DA22300EDE6E040E9C
:101CA000DD6E3FC0D9FF40C0DAFF040EDF6E3FC0DB
:101CB000D9FF40C0DAFF000EDB8E000E4A6E000E28
:101CC000496E486612008AEC10F01200016E080E90
:101CD000026E0150080E00010001A05D000E00011F
:101CE000A159D8B00BD0A0C002F04F6602D0010EAF
:101CF00004D04F04D8A402D0020E4F6E025000014F
:101D00000001A05F000E0001A15B000120EE01F0C8
:101D100000017251D92600017351DA2202C0DFFF9F
:101D20000401040E426E0401380E416E00019FA1B1
:101D30001FD03FD000019CC0F6FF00019DC0F7FFFF
:101D4000F86A41C0D9FF42C0DAFF070EF76403D03A
:101D50000800F55005D0F6CFE9FFF7CFEAFFEF50C6
:101D6000DF6E000100019C4B9D2B414A422A020676
:101D70000266E0D7120000019CC0F6FF00019DC082
:101D8000F7FFF86A41C0D9FF42C0DAFF070EF764D7
:101D900003D00800F55005D0F6CFE9FFF7CFEAFFF2
:101DA000EF50DF6E000100019C4B9D2B414A422AFF
:101DB00002060266E0D71200000E04010401386F2B
:101DC000000E04010401396F46D0000100019F8F0D
:101DD0004404D8A44DD004010401388349D0000143
:101DE00000019F8F45D0000100019F8F040134BF87
:101DF0000ED00401040134510F0B016E0150020D8D
:101E00000001780EF324D96E0001000E0DD00401FC
:101E1000040134510F0B016E0150020D0001720ECE
:101E2000F324D96E0001000EF420DA6EDECF02F04A
:101E3000DDCF03F002C0D9FF03C0DAFFDFAE18D058
:101E400002C0D9FF03C0DAFFDFA412D0010E0401E3
:101E50000401386F0DD00401040130511F0B000A3A
:101E6000D8B4B3D7010AD8B4BAD7030AD8B4BBD709
:101E700000019FAF12000401040E000100019D6FDC
:101E80000401380E000100019C6F000100019F81D8
:101E9000020E00010001A06F12002D0E4B6E5AC001
:101EA00024F0FD0E2416D8A45CD05AC024F0D8909B
:101EB00024323F0E24162450040D0401000EF32496
:101EC0003D6E0401040EF4203E6E3EC040F03DC065
:101ED0003FF0040E3F1A3DC0D9FF3EC0DAFFDF30AD
:101EE000E8320F0B0D0AD8A439D0246E000E266EEE
:101EF000245024D020EE02F03D50D9263E50DA2264
:101F0000DECF24F0DDCF25F024C0D9FF25C0DAFFD5
:101F10002650010D0401300EF324E16E0401040E7D
:101F2000F420E26EDFCFE7FF20EE02F03D50D9262D
:101F30003E50DA22DE2A000EDD22262A070E266413
:101F4000D9D720EE02F03D50D9263E50DA22300E8D
:101F5000DE6E040EDD6E41EC11F01200EEEC12F0BC
:101F600012005AC024F0FD0E24162450040AD8A4EE
:101F70001200BCEC0FF0120072C0D9FF73C0DAFF80
:101F8000000EDFBC010E036E040E00010001721B87
:101F9000000100018E51080AD8A40ED004010401EA
:101FA00032517F0B636E6350D8B402D0100E01D053
:101FB000040E000100018E6F4C04D8A43CD0000137
:101FC00020EE02F000017251D92600017351DA228D
:101FD000380EDE6E040EDD6E66EC0EF04F50020A17
:101FE000D8A40DD072C0D9FF73C0DAFF040EDF6E23
:101FF00072C0D9FF73C0DAFF000EDB8E12000366D9
:102000000DD072C0D9FF73C0DAFF480EDF6E72C008
:10201000D9FF73C0DAFF000EDB8E120072C0D9FF49
:1020200073C0DAFF080EDF6E72C0D9FF73C0DAFF2B
:10203000000EDB8E120000016DAF03D00001000125
:102040006D9F000E4C6E1200E8CF05F00150D8B421
:1020500009D00550020D0001720EF324D96E000163
:10206000000E08D00550020D0001780EF324D96E41
:102070000001000EF420DA6EDECF06F0DDCF07F0AF
:1020800007500610D8A405D0000E026E000E016E97
:10209000120020EE02F00650D9260750DA2202C0C4
:1020A000DEFF03C0DDFF20EE01F00650D926075009
:1020B000DA2204C0DFFF06C0D9FF07C0DAFF400EF6
:1020C000DF1606C0D9FF07C0DAFF000EDB8606C0A8
:1020D000D9FF07C0DAFF000EDB8E0150D8B409D05B
:1020E0000550020D0001720EF324D96E0001000E9E
:1020F00008D00550020D0001780EF324D96E0001BE
:10210000000EF420DA6E040EDF1A07C002F006C0DB
:1021100001F0120049661200010E496E4A66120073
:10212000010E4A6E4C50020AD8A418D0000120EECD
:1021300001F000017251D92600017351DA22000E1C
:10214000DF6E72C0D9FF73C0DAFF480EDF6E72C057
:10215000D9FF73C0DAFF000EDB8E12004C04D8A446
:102160001200000E436E20EE01F03D50D9263E5085
:10217000DA22080EDF6E20EE02F03D50D9263E50E6
:10218000DA22300EDE6E040EDD6E3DC0D9FF3EC099
:10219000DAFF040EDF6E3DC0D9FF3EC0DAFF000E4D
:1021A000DB8E010E436E20EE01F03F50D9264050E9
:1021B000DA22080EDF6E20EE02F03F50D9264050A2
:1021C000DA22300EDE6E040EDD6E3FC0D9FF40C055
:1021D000DAFF800EDF6E1200000E466E000E476EB4
:1021E0004C50020AD8A41FD020EE01F03F50D9264F
:1021F0004050DA22080EDF6E20EE02F03F50D92662
:102200004050DA22380EDE6E040EDD6E3FC0D9FF7C
:1022100040C0DAFF480EDF6E3FC0D9FF40C0DAFF92
:10222000000EDB8E120000010001A0510401040128
:10223000365D00010001A151040104013759D8B0F5
:1022400004D036C4A0F037C4A1F066EC0EF0000153
:1022500020EE02F000017251D92600017351DA22FA
:10226000380EDE6E040EDD6E72C0D9FF73C0DAFF69
:10227000480EDF6E72C0D9FF73C0DAFF000EDB8E2E
:102280001200000E4F6E000E486E000E466E000EDD
:10229000476E000E436E000E4C6E72C0D9FF73C0C5
:1022A000DAFF7F0EDF16040E00010001721B72C000
:1022B000D9FF73C0DAFF7F0EDF16040E00010001A4
:1022C000721B3FC0D9FF40C0DAFF7F0EDF16000E41
:1022D000000100019F6F000E00010001A16F000EC0
:1022E0000001A06F000E000100016D6F000E0001E3
:1022F00000016F6F000E00016E6FD0EC0BF0000E4E
:10230000136E030E126E000E156E000E146E000E8C
:10231000176E000E166EB5EC12F0EEEC0DF012001A
:10232000E8CF06F00401040E086E0401000E076EEB
:10233000D8900134026E036A03360650046E056AB3
:10234000D89004360536D890043605360250042657
:1023500003500522D89004360536D8900436053649
:10236000045007260550082207C0D9FF08C0DAFF2D
:10237000DF9E016609D00650020D0001780EF3249D
:10238000D96E0001000E08D00650020D0001720E39
:10239000F324D96E0001000EF420DA6E07C0DEFFD0
:1023A00008C0DDFF07C0D9FF08C0DAFFDF9C20EEC0
:1023B00004F00750D9260850DA22DF8C1200000EF4
:1023C000506E4B0E516E000E526E000E536E0F6E1D
:1023D000000E546E0F500F6E000E556E0F500F6EA4
:1023E000080E566E0F500F6E000E00010001916F27
:1023F0000F500F6E1A0E096E0F50010E45EC13F0C0
:102400000F6E1E0E096E0F50020E45EC13F00F6E8C
:10241000000E016E0F500501050E036E0501400E02
:10242000026E106E400E046E1050020E24EC10F07E
:1024300001C08CF002C08DF0000E000100018B6F16
:10244000000E000100018A6F0F6E000E00010001F6
:10245000926F0F501200A394000100019251D8B462
:1024600002D0A38412000001B66F000E000100012B
:10247000B96F0001B65100010001B5C0B8F000010C
:102480000001B4C0B7F000010001B92B0001000148
:10249000B929D8B40DD00001B7C0D9FF0001B8C028
:1024A000DAFF00010001B74BB82BDF50D8A4EBD7FF
:1024B00000010001B5C088F000010001B4C087F040
:1024C000B9C093F00001B66F000E00010001906FDB
:1024D0000001B6510001B66F010E00010001926FBC
:1024E0000001B651A384120060A235D0030E6CEC3B
:1024F00014F012003B043C10D8A404D0030E50EC9E
:1025000014F030D03B504B0A3C10D8A404D0030E3A
:102510006CEC14F027D0970E3B5C000E14D03B04FB
:102520003C10D8A404D0030E50EC14F01BD03B5048
:10253000320A3C10D8A404D0030E6CEC14F012D074
:10254000B70E3B5C030E3C58D8A00CD0000E3C6E7E
:10255000000E3B6E07D0000100018E51200AD8B456
:10256000C9D7DDD73B4A3C2A12000FD074EC12F0D9
:10257000120074EC12F0120074EC12F0120033EC42
:1025800014F01200E5EC0CF0120012C018F013C0A9
:1025900019F01950000AD8B404D07F0AD8A4120048
:1025A0001AD01850010AD8B4EAD7030AD8B41200D6
:1025B000010AD8B4E7D7060AD8B41200770AD8B40B
:1025C0001200010AD8B4D2D7070AD8B4D5D7010A65
:1025D000D8A41200CED71850FF0A12004C50020A9D
:1025E000D8A403D03BEC0BF01200000E4C6E4366F7
:1025F0001FD020EE01F03F50D9264050DA22080EBD
:10260000DF6E20EE02F03F50D9264050DA22300E25
:10261000DE6E040EDD6E3FC0D9FF40C0DAFF0C0E47
:10262000DF6E3FC0D9FF40C0DAFF000EDB8E120024
:10263000000E436E1200E8CFB4F014D095900F0155
:102640000F015E91120095920F010F015E91120031
:1026500095940F010F015E91120095960F010F01E5
:102660005E91120000010001B451000AD8B41200BA
:10267000010AD8B4E3D7030AD8B4E5D7010AD8B41D
:10268000E7D7070AD8A41200E8D7E8CF0EF009A4CC
:1026900007D00A6E000E016E0A500E5090EC11F039
:1026A00009A207D00A6E010E016E0A500E5090EC7E
:1026B00011F00E50010D6A0E0A6E0F0E0B6EF350E4
:1026C0000A26F4500B220AC00CF00BC00DF00CC00F
:1026D000D9FF0DC0DAFF09C0DFFF120001EE00F0E4
:1026E000800EEE6AE806FDE100EE60F0420EEE6A52
:1026F000E806FDE100EE37F0240EEE6AE806FDE1A3
:102700001E0EF66E2A0EF76E000EF86E00EEA2F0A8
:1027100010EE12F00900F5CFEEFFE550E150FAE1BE
:10272000000EF86E0001FEEF14F0A394000100010A
:1027300092671AD000010001B5C088F000010001C5
:10274000B4C087F0B6C093F00001B76F010E00016E
:102750000001906F0001B7510001B76F010E000139
:102760000001926F0001B751A38412000001000123
:10277000B5C0BBF000010001B4C0BAF00BD0BAC0C4
:10278000D9FFBBC0DAFF0001B6C0DFFF00010001C6
:10279000BA4BBB2B00010001B807D8A0B907000154
:1027A000B829D8B4B929D8B41200E9D7E8CFB5F020
:1027B00011D0800E9B6E700ED36E100ED26ED2AE04
:1027C000FED7900EB56E030E1BEC13F0020EA3ECB9
:1027D00014F0120000010001B551000AD8B4E9D785
:1027E000010AD8B41200030A1200E8CFB4F00ED0E8
:1027F00081B802D0010E1200000E120081BA02D080
:10280000010E1200000E1200000E12000001000165
:10281000B451000AD8B4F8D7010AD8B4E9D7030AEA
:10282000D8B4ECD7000E12006AA01BD0800E3DC0B9
:10283000D9FF3EC0DAFFDF6213D0840E72C0D9FF29
:1028400073C0DAFFDF620CD03DC0D9FF3EC0DAFFB3
:102850000C0EDF6E3DC0D9FF3EC0DAFF000EDB8EEE
:102860006A90659A1200DFEC11F0116E000E546E42
:102870001150116E080E566E1150116E000E556EED
:102880001150800E506E250E516E000E526E000ECD
:10289000536E116E000E000100018F6F1150120077
:1028A000E8CF01F008D08C8012008C8212008C845A
:1028B00012008C8612000150000AD8B41200010ADE
:1028C000D8B4F1D7030AD8B4F0D7010AD8B4EFD7F7
:1028D000070AD8A41200EDD7E8CF01F008D08C90F9
:1028E00012008C9212008C9412008C9612000150EF
:1028F000000AD8B41200010AD8B4F1D7030AD8B438
:10290000F0D7010AD8B4EFD7070AD8A41200EDD740
:10291000000100018E671200000E606E000E646EF2
:10292000160E626E9F0E666E7B0E646ED08EA58450
:10293000A384F28E01D0608660A6FDD7010E00014F
:1029400000018E6F1200E8CFB4F00AD093880F0117
:102950000F015C991200938A0F010F015C9B12001A
:1029600000010001B451000AD8B41200010AD8B421
:10297000EDD7030AD8A41200EED7000E456E000E64
:10298000136E740E126E000E156E000E146E000E95
:10299000176E000E166EB5EC12F06092649401D0C2
:1029A000659465A41200FCD702C008F001C007F0CE
:1029B00008D007C0D9FF08C0DAFF03C0DFFF074A0D
:1029C000082A0506D8A006060528D8B40628D8B4D3
:1029D0001200EFD7648465986082010E456E000E88
:1029E000136E750E126E000E156E000E146E000E34
:1029F000176E000E166EB5EC12F01200000ED6EC3B
:102A000013F0DFEC06F088EC14F0200E000100015A
:102A10008E5DD8B060B2F9D7BFEC07F0F6D742753B
:102A200074746F6E20707265737365642E0D0A0086
:020000040020DA
:08000000FFFFFFFFFFFFFFFF00
:020000040030CA
:0E00000021081F3EFF9181FF0FC00FE00F404F
:00000001FF
