:040000008031102813
:10000800803120007F082100E7008131492121004B
:1000180067082000FF00090080311228E8308400BA
:100028000030850007308731F9278031A0308400FF
:10003800013085004F308731F9278031A0308400A6
:100048000230850040308731F92780312030840024
:100058000330850040308731F9278031F53084003E
:1000680088308500203086000230870012308831C1
:10007800E420200089311A2920005208013A031D82
:10008800592850081F390038031D59282100EC173A
:1000980020005108033A031D57280130E80068087A
:1000A8002300C90059282300C90120005208031D54
:1000B800080050081F39023A031D080054080F3978
:1000C800003A0319080054080F39E80003306802A1
:1000D8000318080023004E08203A031D08002100D9
:1000E800EC172000D41B862854080F39BD3E860023
:1000F800013087000108E8006808ED0054080F394E
:10010800B73E932854080F39BA3E8600013087005D
:100118000108E8006808ED0054080F39B43E86006D
:10012800013087000108E8006808EC006C18A12875
:10013800FB30E8006808ED05A2286D15D41BAA2835
:100148006D08E80054080F39BD3EAF286D08E80077
:1001580054080F39BA3E86000130870068088100CC
:100168005108033A031DD3286D0886008701811FB3
:10017800CA28D41BC32854080F39B73EC6285408C8
:100188000F39B43E86000130870081146D0886005F
:10019800870101156D088600870181170800043062
:1001A800E8006808ED066D0886008701811FF728BA
:1001B8007F30E8006D0886008701680881056D08B2
:1001C8008600870101170530E2000030E3006D0862
:1001D800E4000030E5000130E6000030E7008B3134
:1001E8001F238031FC2820006D0886008701011735
:1001F80004302000E8006808ED06EC1808296D08AE
:1002080086008701811F2C29D41B0E2954080F3919
:10021800B73E112954080F39B43E860001308700D3
:1002280081103B30E8006D08860087016808810569
:100238000530E2000030E3006D08E4000030E5001E
:100248000130E6000030E7008B311F23803134296C
:100258003B302000E8006D088600870168088105AA
:10026800200054080F39983EE800E9010E30E93DB6
:100278006808EA006908EB00FE30E8006A088600B2
:100288006B08870068088105080023004E08013ABA
:10029800031D5A293D008E1A5A299001121412166C
:1002A80002302100E40064082300CE003D0010194C
:1002B800121D6729FB302100E40064083D00900509
:1002C8008A31012281313D008E1C6D2920001211D6
:1002D80008001018121C802984317E2481312100E5
:1002E80012150430E40064082300CE00FE3021001B
:1002F800E40064083D009005101A121E8C298A310A
:100308001F228131EF302100E40064083D00900590
:10031800101FB229121FA02973302000E2000030FC
:10032800E3000030E4000030E5000130E600003072
:10033800E7008B311F238131BF302100E4006408BE
:100348003D009005230051080319AC290130D10262
:10035800D108031DB2298E31BA2681313D00901A89
:10036800921EB9298A315E2281313D009018921C73
:10037800CF29FF302000E2007F30E3000030E400A6
:100388000030E5000130E6000030E7008B311F2324
:1003980081313D009301043023004E020318D72910
:1003A8002000121108003D00921D2E2A2100E601AE
:1003B800272A0F082100E40064082300EE006E0CD1
:1003C8002100E400E40C640C0F39E5006508230003
:1003D800D900F7302100E40064083D0090052300AF
:1003E8006E19F9295908B73EFC2923005908B43E6B
:1003F800860001308700010801392100E40001303E
:10040800E40601086406FE39640681002300D90861
:10041800031D122A87314B278131222A723020008E
:10042800E2000030E300EE30E4000130E500003087
:10043800E6000030E7008B311F23813101302100B5
:10044800E4006408E6070430660203182E2A3D001B
:100458009019DD2920001211080021001211230033
:1004680047080319452A470886008701010D010D31
:1004780001392200E800E9016808EA006908EB0090
:10048800482A2200EA01EB016B086A0403194F2A83
:1004980021001215080023005508033A0319D50155
:1004A800D508031D5A2A21001215080023005508F3
:1004B800023A031D772A2200E001E00A0030E10039
:1004C8000030E200E30102308C313D248231220009
:1004D800E80068082300C70003302200E800680825
:1004E8002300D500032B5508013A031D032B413087
:1004F8005602031C812A4030832A23005608220012
:10050800E8006808ED006D03FF3A23005607220053
:10051800E80068082300D600A0302200E800680838
:100528002300C20022006D08E8006808EC002300E0
:10053800D3080319BB2ADB2A230044088600450890
:10054800870001082200E80023004208860087018E
:100558002200680881000130E80068082300C2070B
:100568000130C4070030C53D01302200EC022200F2
:10057800EC080319DF2AA02A23004408860045084E
:10058800870001082200E80023004208860087014E
:100598002200680881000130E80068082300C207CB
:1005A8000130C4070030C53D01302200EC022200B2
:1005B800EC08031DC02A2300D608031DF02A2200D8
:1005C8006D08403A031DEA2A0230EC2A0330220063
:1005D800E80068082300D5002200E001E00AA03006
:1005E800E1000030E2006D08E8006808E30002302E
:1005F8008C313D242200E90069082300C70021004E
:10060800121508000034C8344E3482340B340934CF
:10061800023443340034023401340034C0343234F8
:10062800093404340034003401340234023401340F
:1006380000340534243400341034013404342434B0
:1006480002340234053424340634003401340534C9
:10065800243401340034013407340534813403343C
:1006680008340034023409340434013400340234C8
:100678000A340034003400340734053402340234B8
:1006880040340034003407340534823402344034B2
:1006980000340034343403344D34003469340034C5
:1006A80063340034723400346F34003463340034FB
:1006B8006834003469340034703400342034003431
:1006C80054340034653400346334003468340034FE
:1006D8006E3400346F3400346C3400346F340034BA
:1006E8006734003479340034203400344934003419
:1006F8006E340034633400342E340034343403341C
:100708004334003444340034433400342034003457
:1007180052340034533400342D340034323400342D
:100728003334003432340034203400344534003457
:100738006D340034753400346C3400346134003462
:1007480074340034693400346F3400346E34003447
:100758002034003444340034653400346D340034BB
:100768006F3400341234013400340234023400345B
:1007780000340834D83404340A34003400340134E2
:1007880001340234003401340434033409340434A9
:10079800210012113D009301900198010E302200B2
:1007A800E3009930E200E401023064020318ED2B03
:1007B800620886006308870081010130E207003083
:1007C800E33D0130E0006008E40702306402031CE6
:1007D800DC2B16303D0091009F3097007B30920053
:1007E8002200E5010C3065020318132C6508E000AF
:1007F8000130E035FF3E031DFD2B6035203E8600AD
:1008080087010030C03F0030C13FC23FC33F0130C5
:10081800E0006008E5070C306502031CFA2B3D0078
:100828000E1796010E120E133D00901D282CF7305E
:100838002200E00060083D0090052100EC01230043
:10084800AC01AD01AE01182C01302200E0006008B7
:100858002300CF0001302200E00060082300D00010
:10086800CB01CC01CA012200E5010330650203185F
:100878005D2C6508BA3E8600013087008101650855
:10088800BD3E86000130870081016508B43E8600C0
:100898000130870081016508B73E86000130870076
:1008A80081010130E0006008E50703306502031CA0
:1008B8003D2C2830E00060082300BA0016303D00C7
:1008C800980050302200E0000030E100600820006D
:1008D800A200220061082000A3000830A100043013
:1008E8002200E00060082000A000A0172300ED010E
:1008F800CE010800210012113D00930190019801DA
:100908000E30F3009930F200F4010230740203183B
:100918009E2C720886007308870081010130F20757
:100928000030F33D0130F0007008F4070230740223
:10093800031C8D2C16303D0091009F3097007B30B2
:100948009200F5010C3075020318C32C7508F000ED
:100958000130F035FF3E031DAD2C7035203E86007A
:1009680087010030C03F0030C13FC23FC33F013064
:10097800F0007008F5070C307502031CAA2C3D0026
:100988000E1796010E120E133D00901DD62CF7304F
:10099800F000700890052100EC012300AC01AD01C6
:1009A800AE01C82C0130F00070082300CF000130E0
:1009B800F0007008D000CB01CC01CA01F50103306A
:1009C80075020318072D7508BA3E860001308700A6
:1009D80081017508BD3E86000130870081017508D8
:1009E800B43E86000130870081017508B73E860055
:1009F8000130870081010130F0007008F5070330ED
:100A08007502031CE72C2830F00070082300BA0098
:100A180016303D0098005030F0000030F1007008AA
:100A28002000A2007108A3000830A1000430F000E3
:100A38007008A000A0172300ED01CE0108002100D6
:100A4800680886008701413FF5007508F200F30148
:100A5800730823002E02031D332D72082D0203187C
:100A6800392D2D08F2007208F5007508F200F3011F
:100A78007208AD027308AE3BF401750874020318DE
:100A88005A2D7408583E860087010108F2002A088A
:100A9800860001308700720881000130F200720878
:100AA800AA070130F2007208F407412D0330AA3E6C
:100AB800860001308700160001040319942D0830C0
:100AC800F2002100690A8600870172088100583007
:100AD800F2000030F3006908023E860087017208C0
:100AE800C03F7308C13F680886008701011B882D35
:100AF8004830F20069088600870172088100690899
:100B080086008701811708000830F200690886000E
:100B1800870172088100690886008701811708002B
:100B28000830F2002100690A8600870172088100F6
:100B38005030F2000030F3006908023E8600870159
:100B48007208C03F7308C13F0430F200690886008C
:100B580087017208810069088600870181172300D0
:100B68002F08AC13CD08031D08008E31BA260800E3
:100B78002100EC170E302000EA009930E900EB0163
:100B880002306B020318D92D690886006A088700AD
:100B980081010130E9070030EA3D0130E8006808CA
:100BA800EB0702306B02031CC82D2030F000003028
:100BB800F1000030F2000030F3003030F400003073
:100BC800F5008931C72185313D000E172000EC0161
:100BD80003306C020318042E6C08B43E8600013002
:100BE800870081016C08B73E8600013087008101CB
:100BF8000130E8006808EC0703306C02031CF02D94
:100C0800EB30F0000130F1000030F2000030F3006A
:100C18000230F4000030F5008931C72185313D00EC
:100C28000E1328302000E80068082300BA0020309E
:100C38002000E80068082100E80068082000E800B3
:100C480068082100E90020005208E800680823002D
:100C5800ED00ED08031D372E10302000E80068086D
:100C68002300CE00080001302000E2000030E3003D
:100C7800ED30E4000130E5000130E6000030E70027
:100C88008B311F2320302000E80068082300CE00A5
:100C980008003D000E122100EC1B8E2E2300AC1F15
:100CA800622E0230F5007508D700CC08031D5E2EB1
:100CB8008C31D8242300D001CF0108000830F5007A
:100CC8002100690A86008701750881005030F50007
:100CD8000030F6006908023E860087017508C03FAB
:100CE8007608C13F0C30F500690886008701750851
:100CF800810069088600870181170430F500230008
:100D08003A0886008701750881003A08860087013D
:100D1800811708002000D01FA52E0130F5007508A6
:100D28002300D700CB08031D9C2E8C31D824863194
:100D38002300D001CF01CD08031D08008E31BA264B
:100D480008000230F50075082300D7000830F500C8
:100D58002100690A86008701750881005030F50076
:100D68000030F6006908023E860087017508C03F1A
:100D78007608C13F0430F5006908860087017508C8
:100D8800810069088600870181172300D001CF01FF
:100D9800CD08031D08008E31BA260800200050082F
:100DA800803A031D0800C030F00070082100EC00F4
:100DB8003E2FB6302100EA008330EB000030EE0011
:100DC8001230ED00080020005208031D172F0A30CA
:100DD800840083308500520884070318850A003F81
:100DE8002100EA008330EB006B08F1006A08F0008C
:100DF80002307007840071080318710A8500000822
:100E0800F2007208ED006B08F1006A08F000033088
:100E18007007840071080318710A85000008F20041
:100E28007208EE0008002100EC01080003302000E1
:100E380052020318382F0730840083308500520887
:100E480084070318850A003F2100EA008330EB007D
:100E58006A0884006B0885000008F000F10170083A
:100E6800ED007108EE0008002100EC0108002100E7
:100E7800EC01080020005308013A0319DD2E033A5B
:100E88000319E72E013A03191A2F3B2F08002D30BA
:100E98002100E00060082300D1006E08FD39031D21
:100EA800B02F6E363F392100E0000130E035FF3EBB
:100EB800031D5A2F6035203EE1006108E8006808EC
:100EC800E0006008E9000430E0006008E90668080E
:100ED80086008701010C890C0F390D3A031DAD2FCF
:100EE800E3010830630203189E2F6808023E86005B
:100EF8008701403FE000413FE1006008860061084B
:100F080087000108E2006308503E860087016208F6
:100F180081006808023E860087010130810741315F
:100F28000318810A0130E0006008E3070830630213
:100F3800031C792F5030E0000030E1006808023EC1
:100F4800860087016008C03F6108C13F8B31F023EC
:100F580008008A3184220800FD3023006E05210034
:100F6800E0006008043A031D08008E315626080088
:100F7800F5002030F1007108F6007008F10001302A
:100F8800F135890BC42F7508F2000130F235FF3EA8
:100F9800031DCA2F72357107F3000130F335FF3E88
:100FA800031DD22F7335F4007408F60776088600FF
:100FB80087018113F008031DE62F7608F1007508F4
:100FC800BD3EEA2F7608F1007508BA3E860001306A
:100FD800870071088100760886008701011376086A
:100FE800043E860087010117080064008001013172
:060FF800890BFA2F003402
:101000008E31182E8E311B2E8E31552E8E311B2E89
:101010008E31552E8D31FB2D8E31042E8E313B2E8F
:101020008E310A2E8E31072E8E311E2E8E312E2EAF
:101030008E31552E8931C6298931AF298931B2299E
:101040008931B5298931B8298931902989317A299D
:1010500089317D298931802989318329893177290D
:1010600089316129893164298931672989316A295E
:1011C800FE0012001E00FE0BE52800342200E0009D
:1011D8006008003A0319F428013A0319F428F4289E
:1011E800080042347534743474346F346E342034E7
:1011F80070347234653473347334653464342E3423
:101208000D340A3400348A31E6222300E80108301C
:10121800FD007D08EA00E9010030E7000030E60043
:101228002530E5008030E400D20108000030893123
:10123800472189318331CC2389318931E4218931AE
:10124800203023004E02031C24293D008E18242937
:101258008F312227893124292200E0003C290310FC
:1012680020008C1D03140030093D080000300800E0
:1012780022006008003A03193A29013A0319332970
:101288004529003008002200E10052290130893147
:10129800AC21893101308831EA2008002200610838
:1012A800003A03194A29013A03195E29033A031936
:1012B8005E295E290800F0006D2922000E10080042
:1012C80022008E10080022000E11080022008E1144
:1012D80008007008840005300402031808008831EB
:1012E80004352E3E82000800F000862922000E14E4
:1012F800080022008E14080022000E1508002200A3
:101308008E150800700884000530040203180800D0
:1013180088310435243E820008002200E2002100C2
:1013280012112300D508031DA929220062082300F1
:10133800C4000330C50022006008E10061082300F2
:10134800D600D301D30AD501D50A21001215080009
:101358002200E000BB2921000E10080021008E1099
:10136800080021000E11080021008E11080022003B
:101378006008840005300402031808008831043529
:101388001A3E820008007108F701F7077008F60195
:10139800F6070130F4020030F53BFF307506031DF7
:1013A800D729FF30740603190800760886007708E5
:1013B8008700720881000130F6070030F73DCD291B
:1013C8002300CE08031D08003D008E01920116304F
:1013D80091009F3097007B309200210012150B1767
:1013E8008B173D008E19FA298E15F5290130220038
:1013F800E00060082300CE0008002300CA01743012
:101408002000E2000030E3000030E4000030E50096
:101418000030E6000030E7008B311F238A313D00A1
:101428008E101211101D0800FB302000E80068081B
:101438003D009005162A3D001215EF302000E80007
:1014480068083D0090058E1401302000E800680807
:101458002300CA0075302000E2000030E3000030AD
:10146800E4000030E5000030E6000030E7008B3192
:101478001F230800FC00771D462AF0017C088731ED
:10148800BC278A31F71C4D2AF001F00A7C08873105
:10149800BC277C08983EF800F9010E30F93D780821
:1014A800FA007908FB007A0886007B08870077082D
:1014B800810008003D00181C7F2A2100680886006A
:1014C80087010108803A031D7D2A23003A08860017
:1014D80087010108843A031D7D2A0C30F0002100A1
:1014E80068088600870170088100680886008701FF
:1014F80081173D001810DF30F000700890050800D3
:1015080023005708023A031D8C2A85312325080039
:101518002300D701C608031DB12A0830F6002100B0
:10152800690A86008701760881005030F60000308D
:10153800F7006908023E860087017608C03F7708F1
:10154800C13F0C30F60069088600870176088100E3
:10155800690886008701811708002300C601080072
:101568002200E20021001211230055080319BF2AA6
:101578002100121508002200E3016208E00060085B
:10158800E1000130E0006008E3076308FF3A03194F
:10159800D52A6108860002308700E10A8108031D08
:1015A800C52A62082300C4000230C500220063086F
:1015B800E00060082300D600D301D501D50A210038
:1015C8001215080000302300E7000030E6004B3019
:1015D800E5000030E400E801E90108302000E000FF
:1015E80060082300EA00D4011A302000E0006008F7
:1015F800F70001308A313E228A311E302000E00097
:101608006008F70002308A313E228A31F00120302A
:10161800F1000130F20040302000E0006008F300E3
:1016280002308B3158232000E10061082300C800F4
:10163800C701D50108002F2B8C318A2408008C3172
:101648008A2408008C318A2408008931072108007F
:101658008D312F25080020006308003A0319382B24
:101668007F3A0319522B572B6208013A0319292B89
:10167800033A0319572B013A03192C2B063A03197D
:10168800572B773A0319572B013A0319202B073A9E
:101698000319262B013A0319232B572B6208FF3A0B
:1016A8000319572B572B0800F600700803195F2BF6
:1016B8007608BA3E612B7608BD3E86000130870069
:1016C8000108F4007408F700F708031D6D2B0030BB
:1016D8000800FF307105F4007F307205F5007708C7
:1016E800023E860087017408C03F7508C13F730831
:1016F800F400770A86008701740881004030F400FE
:1017080077088600870174088105770886008701B5
:101718008115770886008701811770080319992BAE
:101728000430F4007608BA3E9D2B0430F4007608A5
:10173800BD3E8600013087007408810677080800DE
:101748002000D801D901D72B2100EC172300490824
:10175800013A031DE32B2000D814E32B2100EC17DA
:10176800E32B2100EC172000D41BBE2B54080F39A3
:10177800BD3EC12B54080F39BA3E860001308700A0
:101788000108F0007008F100710886008701811FC8
:10179800E32B710886008701011DE32B0130F0005F
:1017A8007008D800E32B50081F39003A0319A82BFA
:1017B800013A0319B22B033A0319B52BE32B210085
:1017C800EC1F08005830EA000030EB006C140230BF
:1017D800F0007008ED0008002300DB01CD01CB010B
:1017E800CC01C601D7017F302000EF0023003A0862
:1017F8008600870120006F0881050430EF006F081C
:101808002300BA067F302000EF0023003A08860044
:10181800870120006F0881050430EF006F0823005E
:10182800BA067F302000EF00210069088600870192
:1018380020006F0881052100EC01ED01EE01230075
:10184800AC01AD01AE018D31F3258B3103302000A1
:10185800E2000030E3000030E4000030E500003032
:10186800E6000030E7008B311F238B3186314D268F
:1018780008002200E60060080319452C6608BA3EF5
:10188800472C6608BD3E8600013087000108E40049
:101898006408E700E708031D532C00300800FF30F8
:1018A8006105E4007F306205E5006708023E8600B6
:1018B80087016408C03F6508C13F6308E400670A00
:1018C80086008701640881004030E40067088600CC
:1018D8008701640881056708860087018115670804
:1018E800860087018117600803197F2C0430E40003
:1018F8006608BA3E832C0430E4006608BD3E8600C4
:101908000130870064088106670808003D008E1CC6
:10191800CC2C013089315F210800013023004006BA
:101928004104031D9C2C0130893178218C31D22C43
:101938004B30230040064104031DA72C0130893198
:101948005F218C31D22C0030230041029730C52C06
:10195800013040064104031DB62C0130893178213D
:101968008C31D22C3230230040064104031DC12C97
:10197800013089315F218C31D22C033023004102A0
:10198800B73003194002031CD22CC001C101D22C6C
:1019980023004E08203A0319912CAC2C0130230067
:1019A800C0070030C13D08002300CB01CC01570817
:1019B800023A031DFF2C0830F3002100690A860053
:1019C8008701730881005830F3000030F40069087B
:1019D800023E860087017308C03F7408C13F483043
:1019E800F30069088600870173088100690886008A
:1019F80087018117080021006E0820005702031D87
:101A0800092D21006D08200056020318142D5708CF
:101A18002100EE01EE07200056082100ED01ED0738
:101A28008F3190275830F3000030F40023003A0833
:101A3800023E860087017308C03F7408C13F4830E2
:101A4800F3003A0886008701730881003A08860087
:101A5800870181170800200050081F39013A031D2B
:101A68000800500E890C0339013A031D0800540878
:101A780003197E2D5408013A031D08007E2DDC3021
:101A88002100EA000130EB000030EE000830ED00E4
:101A98006C14EC170800DC302100EA000130EB0080
:101AA800EC170800200057082300AE01AE072000FD
:101AB80056082300AD01AD07E430F0007008AA0015
:101AC800AF01AC170800E4302100EA000130EB0058
:101AD8000030EE000730ED00C130F0007008EC0077
:101AE800080020005208F00070082300D8002100E8
:101AF800EC17080020005108003A0319432D013A59
:101B080003194F2D213A0319562D013A0319672D50
:101B1800033A0319752D902D08002200EB002300CD
:101B2800D40148080319A62D480886008701010D2D
:101B3800010D01392200E900EA016908EC006A0890
:101B4800ED00A92D2200EC01ED016D086C04031DC8
:101B5800F02D2300480A8600870122006808010248
:101B68000318BD2D2300480886008701413F220045
:101B7800E8002300D4012200680823005402031857
:101B8800DE2D5408203E860001308700010822001F
:101B9800E9002300540822006B07EA006A0886005F
:101BA80002308700690881000130E90069082300D4
:101BB800D407BF2D2200E0012030E1000130E2000F
:101BC8004030E9006908E30002308C313D242200EE
:101BD800EA006A082300C80023005408080020000F
:101BE800500E890C0339003A031D08004A2E2100C3
:101BF800EC1708302000EE006E082300CE00080025
:101C08008631D22608008531BC250800ED30210038
:101C1800EA000130EB006C1401302000EE006E0881
:101C28002100ED00EC1708008B31A4230800803157
:101C38004020080020005408EB3E2100EA00013053
:101C4800EB006C1401302000EE006E082100ED005E
:101C5800EC1708002100EC1720005208EE00540889
:101C6800EB3E8600013087006E08810008000230D4
:101C7800E2000030E3000030E4000030E50000300E
:101C8800E6000030E7008B311F23080020005108D0
:101C980084000D3004020318080088310435003E22
:101CA8008200080023003A08860087010030011BE3
:101CB8000130F5000430F3007308BA064E08083AFC
:101CC800031D752E200052087F393D009600160826
:101CD8000319702E1030712E0430F300730823009E
:101CE800CE005708013A031DB42E5830F3000030D7
:101CF800F4003A08023E860087017308C03F740862
:101D0800C13F8F3190278E3123005B08023A031DB3
:101D1800992E0430F3003A08860087017308810081
:101D28003A088600870181170800F508031DA82EC8
:101D38004830F3003A0886008701730881003A08A2
:101D480086008701811708000830F3003A088600EA
:101D58008701730881003A08860087018117080007
:101D6800AC1FB82E2F08AC13D70108002300CF08EA
:101D7800031D08000130F0007008CF00D008031DD3
:101D880008000130F0007008D0005708023A031D1F
:101D9800DD2E3A0A8600870181014830F0003A08B2
:101DA80086008701700881003A088600870181173C
:101DB80008005708013A031D0800C6010830F00062
:101DC8002100680A86008701700881005030F00001
:101DD8000030F1006808023E860087017008C03FA5
:101DE8007108C13F0430F000680886008701700858
:101DF800810068088600870181170130F0007008AB
:101E08002300C6000830F0002100690A8600870117
:101E1800700881005030F0000030F1006908023E7F
:101E2800860087017008C03F7108C13F8030F0000C
:101E3800690886008701700881000800013089312F
:101E480030218F31013A031D382F2300D208031D9A
:101E58003A2FD508031D3A2F20308A31B4228F310A
:101E68002300D201D20A3A2F2300D201D508031D3C
:101E78008D2F40302200EE006E08E800A0308D3132
:101E880091258F312200EF006F082400B200B301C2
:101E98006D2F3308A03E86000230870001085C2FB2
:101EA80024003308A03E8600023087000108013E66
:101EB8002200EE0024003308203E8600033087000D
:101EC80022006E08810001302200EE006E08240016
:101ED800B307320833020318802F24003308A03ECA
:101EE80086000230870001080A3A03194D2F073A85
:101EF80003194D2F542F672F320803198D2F3208DD
:101F08002200EE006E08E0002030893191218F31E7
:101F180024008231312208000830F0007008F200F5
:101F2800003021006E02083003196D020318AE2F2D
:101F38006D08F0007008F2002300DB08031DA62FCF
:101F48000130AB2F5B08013A031DAE2F0230F000C1
:101F58007008DB007208F000F10170082100ED0242
:101F68007108EE3B7208F00023003A0A86008701E8
:101F7800700881005830F0007008DA0021006C1CED
:101F8800DF2FFC2F21006A0884006B0885000008F9
:101F9800F00023005A08860087017008810001308C
:101FA8002100EA070030EB3D0130F0007008230003
:101FB800DA070130F202F20803190800C62F2100DF
:101FC8006A0884006B0885000008F00023005A089E
:101FD800860087017008810001302100EA0700307F
:101FE800EB3D0130F00070082300DA070130F202FF
:081FF800F20803190800E32FB1
:020000040001F9
:04000E00A2C94FDF55
:00000001FF
